:1009D70050415353574F52442050524F544543545C
:1009E7000053595354454D00454E544552205041EC
:1009F7005353574F52440050415353574F5244207B
:100A07004D415443480050415353574F5244205788
:0F0A1700524F4E470054525920414741494E001B
:100800007F38120AA57F0C120AA57F01120AA57F64
:1008100080120AA57BFF7A0979D77D10120A2A7FF8
:10082000C5120AA57BFF7A0979E87D06120A2A7F9C
:100830002C7E01120A857F01120AA57A0979EF122E
:070840000A267FC0120AA581
:10084700C290209417740F2509F87631120A817F18
:1008570031120AB70509E5097002050820951774D2
:100867000F2509F87632120A817F32120AB7050975
:10087700E50970020508209617740F2509F87633E5
:10088700120A817F33120AB70509E50970020508C4
:10089700D290C291209417740F2509F87634120A62
:1008A700817F34120AB70509E5097002050820950A
:1008B70017740F2509F87635120A817F35120AB7A2
:1008C7000509E50970020508209617740F2509F830
:1008D7007636120A817F36120AB70509E5097002D2
:1008E7000508D291C292209417740F2509F876371C
:1008F700120A817F37120AB70509E5097002050850
:10090700209517740F2509F87638120A817F381257
:100917000AB70509E50970020508209617740F251F
:1009270009F87639120A817F39120AB70509E509EC
:1009370070020508D292C293209417740F2509F804
:10094700762A120A817F2A120AB70509E509700279
:100957000508209517740F2509F87630120A817F4C
:1009670030120AB70509E50970020508309605D265
:0109770093EC
:0609780002084702097E9F
:10097E00E50F6432702BE51064307025E51164309C
:10098E00701FE512B4351AD2B3C2B47F01120AA594
:10099E007A0979FE120A267FF47E01120A85020A6E
:1009AE00C97F01120AA57BFF7A0A790D7D0E120A04
:1009BE002A7FC0120AA57BFF7A0A791C7D09120ACA
:0909CE002A7FF47E01120A852241
:100AA5008FA0C2B0C2B1D2B27F017E00120A85C248
:020AB500B2226B
:100AB7008FA0D2B0C2B1D2B27F017E00120A85C226
:020AC700B22259
:040A26007BFF7D0EC7
:080A2A008B0A8A0B890C8D0D6B
:100A3200E4F50EE50EC3950D5017AB0AAA0BA90CEF
:100A4200850E82758300120A54FF120AB7050E80C2
:010A5200E2C1
:010A53002280
:040A81007F287E004C
:100A8500E4FDFCC3ED9FEC9E5015E4FBFA0BBB00A7
:0F0A9500010ABA04F8BBFBF50DBD00010C80E4AB
:010AA400222F
:100AC900C2B3D2B47FF47E01120A85C2B3C2B42282
:03000000020AD918
:0C0AD900787FE4F6D8FD75811202080059
:100A5400BB010CE58229F582E5833AF583E0225057
:100A640006E92582F8E622BBFE06E92582F8E222A1
:0D0A7400E58229F582E5833AF583E49322BB
:00000001FF
