:03000000020A14DD
:0C0A1400787FE4F6D8FD75811E020A5BB5
:1009730050415353574F52442050524F54454354C0
:100983000053595354454D00454E54455220504150
:100993005353574F52443A0050415353574F5244C5
:1009A3002057524F4E470050415353574F52442004
:1009B3004D415443480054525920414741494E0048
:1009C3004143434553532044454E49454400574111
:1009D3004954203130205345434F4E44530057412F
:1009E30049542000205345434F4E44532000534560
:1009F30054204E45572050415353574F52443A00C9
:100A030050415353574F5244205550444154454449
:010A130000E2
:0C0CA60004143132333401080001130043
:060C5700D2B57F027E0011
:100C5D00E4FDFCC3ED9FEC9E5015E4FBFA0BBB00CD
:0F0C6D00010ABA01F8BB13F50DBD00010C80E4BC
:010C7C002255
:0A0CB3008FA0C2B7120C57C2B52281
:100C7D007F38120CB37F0E120CB37F01120CB37FB1
:090C8D0006120CB37F80020CB3C7
:0A0CBD008FA0D2B7120C57C2B52267
:100BE8007F207E03120C5D7F01120CB37F80120CF4
:070BF800B37BFF7A09798B42
:060BFF008B1A8A1B891C01
:100C0500E4F51DF51EAB1AAA1BA91C851E82851DC0
:100C150083120C2AFF600D120CBD051EE51E70E542
:040C2500051D80E148
:010C290022A8
:10080000C293C292C291C290D296D295D2943094A1
:07081000063095032096E974
:10081700E4F51AF51B051BE51B7002051AB488F5EC
:10082700E51AB413F0C290D293D292D291209406D3
:100837003094FD7F31222095063095FD7F322220AE
:1008470096063096FD7F3322C291D293D292D290F0
:100857002094063094FD7F34222095063095FD7F45
:1008670035222096063096FD7F3622C292D293D249
:1008770091D2902094063094FD7F37222095063040
:1008870095FD7F38222096063096FD7F3922C29348
:10089700D292D291D2902094063094FD7F2A2220C2
:1008A70095063095FD7F302230960302080030967A
:0308B700FD7F239F
:0108BA00221B
:050CC700C2B3C2B4221B
:050CCC00D2B3C2B42206
:100C9600C2B3D2B47F967E00120C5DC2B3C2B42238
:1008BB00120C7D120CC77F80120CB37BFF7A097967
:1008CB0073120BFF7FC4120CB37BFF7A097984126E
:1008DB000BFF120BE87FC0120CB31208008F18E548
:1008EB0018C394304023E518D39439501CC3E50842
:1008FB00940A7480948050E2AF08050874092FF8AD
:10090B00A6187F2A120CBD80D1E518B42A0D120B44
:10091B00EF7FC0120CB3E4F50880BFE518B423BA1F
:10092B00E50864037014E509B4340FE50AB4340A1E
:10093B00E50BB43005120B8E8020E50864047005BE
:10094B00120AA080157F01120CB37BFF7A09799BE9
:10095B00120BFF7F587E02120C5DE4F508120BEFB1
:08096B007FC0120CB30208E585
:100AA000E50965147043E50A6515703DE50B6516AB
:100AB0007037E50C651770317F01120CB37BFF7A3C
:100AC0000979AA120BFF120CCC7F967E00120C5DE6
:100AD000C2B3C2B47FE87E03120C5D120C5D120C2F
:100AE00096C2B3C2B4E4F5132205137F01120CB30E
:100AF0007BFF7A09799B120BFF7FC0120CB37BFF3F
:100B00007A0979B9120BFF7F207E03120C5DC3E5D1
:100B1000139403748094804006E4F513120B202292
:100B20007F01120CB37BFF7A0979C3120BFF7FC0E0
:100B3000120CB37BFF7A0979D1120BFF75190AD316
:100B4000E519940074809480403C7FC0120CB37B04
:100B5000FF7A0979E1120BFFE51975F00A84243058
:100B6000FF120CBDE51975F00A84E5F02430FF1280
:100B70000CBD7BFF7A0979E7120BFF7FE87E031239
:0E0B80000C5D151980B9120BEF7FC0020CB38B
:100B8E007F01120CB37BFF7A0979F1120BFF7FC044
:100B9E00120CB3E4F9E9C394047480948050258058
:100BAE000EE519C394304007E519D3943940071266
:100BBE0008008F1980EB741429F8A6197F2A120CDD
:100BCE00BD0980D17F01120CB37BFF7A0A79031223
:0A0BDE000BFF120BE87FC0020CB3FE
:100A20000208BBE493A3F8E493A34003F68001F229
:100A300008DFF48029E493A3F85407240CC8C333D7
:100A4000C4540F4420C8834004F456800146F6DFA6
:100A5000E4800B0102040810204080900CA6E47E84
:100A6000019360BCA3FF543F30E509541FFEE4939B
:100A7000A360010ECF54C025E060A840B8E493A362
:100A8000FAE493A3F8E493A3C8C582C8CAC583CA8D
:100A9000F0A3C8C582C8CAC583CADFE9DEE780BE45
:010CB2000041
:100C2A00BB010CE58229F582E5833AF583E022507F
:100C3A0006E92582F8E622BBFE06E92582F8E222C9
:0D0C4A00E58229F582E5833AF583E49322E3
:00000001FF
